:020000040800F2
:10000000E8AD0020DD010008453A0008473A000845
:10001000493A00084B3A00084D3A00080000000039
:100020000000000000000000000000004501000882
:100030004F3A00080000000089010008513A00080A
:10004000F7010008F7010008F7010008F7010008B0
:10005000F7010008F7010008F7010008F7010008A0
:10006000F7010008F7010008F7010008F701000890
:10007000F7010008F7010008F7010008F701000880
:10008000F7010008F7010008F7010008F701000870
:10009000F7010008F7010008F7010008F701000860
:1000A000F7010008F7010008F7010008F701000850
:1000B0001B5800082B5800083B580008F70100089F
:1000C000F7010008F7010008F7010008F701000830
:1000D000F701000899570008F7010008F701000828
:1000E000F7010008F7010008F7010008F701000810
:1000F000F7010008F7010008F7010008F701000800
:10010000F7010008F70100084B580008F701000844
:10011000F7010008F7010008F7010008F7010008DF
:10012000F7010008F7010008F7010008F7010008CF
:10013000DFF80CD00AF088F800480047F1390008D1
:10014000E8AD0020224B19680868B0E8F00F80F392
:100150000988BFF36F8F4FF0000080F311884EF0D5
:100160000D0E70470000000006480068006880F32C
:10017000088862B661B6BFF34F8FBFF36F8F00DFA1
:1001800000BF00BF08ED00E0EFF30980BFF36F8F01
:100190000F4B1A6820E9F00F106008B54FF05000BF
:1001A00080F31188BFF34F8FBFF36F8F02F0ADFC68
:1001B0004FF0000080F31188BDE808401968086816
:1001C000B0E8F00F80F30988BFF36F8F704700BF6E
:1001D00028000020EFF305807047000006488047A4
:1001E00006480047FEE7FEE7FEE7FEE7FEE7FEE71C
:1001F000FEE7FEE7FEE7FEE7A10200083101000886
:100200000CB500224C4800920192016841F4803103
:1002100001604FF4A063016801F40031019100997D
:10022000491C0091019911B900999942F3D10168D3
:10023000890333D50121019140490A6842F0100237
:100240000A600A6822F003020A600A6842F00202A9
:100250000A604168416041684160416841F48061E1
:100260004160416821F47C114160416841F4E8112A
:100270004160016841F08071016001688901FCD52D
:10028000416821F003014160416841F00201416091
:100290004168C1F381010229FAD10CBD01920CBD64
:1002A000254810B5016841F0010101604168244A08
:1002B000114041600168234A11400160016821F446
:1002C00080210160416821F4FE0141604FF41F016B
:1002D0008160FFF795FF1C494FF00060086010BD7A
:1002E000154A10B55068194B10F00C01184803D08E
:1002F000042901D0082901D0036012E05168536835
:1003000001F470114FF0020413F4803F04EB9141AB
:1003100002D053689B0301D50E4B00E00B4B5943B1
:10032000016051680A4AC1F30311121D515C026851
:10033000CA40026010BD00000010024000200240D0
:100340000000FFF8FFFFF6FE08ED00E000127A0063
:100350000000002000093D002849084328490860A2
:10036000704730B50F23C27801780125F2B1244AD5
:10037000126801F1E02102F4E062C2F5E062120AC3
:10038000C2F10404D3404278A24084781C40144354
:10039000220181F80024007800F01F018D404009FF
:1003A000800000F1E020C0F8005130BD01F01F00D6
:1003B00085404809800000F1E020C0F8805130BD40
:1003C000104A114001430E48001F016070470C4A5B
:1003D000121D0029116801D0014300E08143116022
:1003E00070474FF0E0210428086903D020F0040092
:1003F0000861704740F00400FAE700000000FA05C9
:100400000CED00E080FFFF1FC54910B5884202D106
:10041000012144150AE0C349884202D10121041593
:1004200004E0C14988420AD10121CC03204600F0F2
:10043000B8FC2046BDE81040002100F0B2BC10BD61
:1004400010B54268B94B0C791A400B6842EA042295
:10045000134343608268B64B1A40D1E902432343F9
:100460004C7942EA440213438360C26A097C22F455
:100470007002491EC9B242EA0151C16210BD002199
:100480000160017141718160C16001210174704797
:100490000029816802D041F0010101E021F0010151
:1004A000816070470029816802D041F4807101E0C9
:1004B00021F4807181607047002A4268C9B201D07E
:1004C0000A4300E08A4342607047816841F00801B6
:1004D00081607047014600208968090700D5012026
:1004E0007047816841F00401816070470146002037
:1004F0008968490700D5012070470029816802D02A
:1005000041F4A00101E021F4A0018160704701469F
:1005100000208968490200D5012070474268491EC1
:1005200022F4604242EA413141607047002941684B
:1005300002D041F4006101E021F4006141607047A4
:1005400070B5072609290AD9C568A1F10A0404EB88
:100550004404A640B543A3401D43C56007E00569B8
:1005600001EB4104A640B543A3401D4305611F2391
:10057000072A09D2446B521E02EB820293409C432D
:1005800091400C43446370BD0D2A09D2046BD21F05
:1005900002EB820293409C4391400C43046370BD84
:1005A000C46A0D3A02EB820293409C4391400C4393
:1005B000C46270BD0029816802D041F4801101E05D
:1005C00021F4801181607047C06C80B2704754483C
:1005D0004C30006870470029416802D041F48061C6
:1005E00001E021F48061416070470029416802D038
:1005F00041F4805101E021F48051416070478268EC
:1006000022F4E0420A43826070470029816802D0E8
:1006100041F4004101E021F400418160704700296C
:10062000816802D041F4021101E021F402118160DD
:100630007047014600208968890200D50120704773
:1006400070B5072609290AD9C568A1F10A0404EB87
:100650004404A640B543A3401D43C56007E00569B7
:1006600001EB4104A640B543A3401D430561836BE4
:10067000C3F30154121B921C02EB82021F2494400C
:10068000A34391400B43836370BD826B491E22F4E8
:10069000401242EA01518163704708B50844009056
:1006A000026008BD08B5084428300090006880B298
:1006B00008BD42681F4B1A400A43426070474162BE
:1006C00082627047426822F01F020A43426070470C
:1006D000134908310028086802D040F4000001E006
:1006E00020F40000086070470246002012680A42A9
:1006F00000D001207047C9430160704710B5024621
:10070000002054680B0AC9B20C401168194202D08B
:10071000002C00D0012010BD6FEA1121016070474C
:100720000024014000280140003C0140FFFEF0FF92
:10073000FDF7F1FFFFFD3FFF01684FF6FE7211402C
:1007400001600021016041608160C1606A496A4ABC
:100750000839904203D1486840F00F0006E0664A2D
:100760001432904204D1486840F0F000486070476D
:10077000614A2832904203D1486840F47060F5E73E
:100780005D4A3C32904203D1486840F47040EDE746
:10079000594A5032904203D1486840F47020E5E74E
:1007A000554A6432904203D1486840F47000DDE756
:1007B000514A7832904203D1486840F07060D5E7E2
:1007C0004E4A111F904203D1086840F00F0006E026
:1007D0004A4A1432904204D1086840F0F0000860A0
:1007E0007047464A2832904203D1086840F470604E
:1007F000F5E7424A3C32904203D1086840F4704029
:10080000EDE73E4A50329042EAD1086840F4702049
:10081000E5E730B5026847F6F0739A430C6A8B68D7
:100820002343D1E904452C4323438C692343CC69FA
:1008300023434C6A23438C6A234313430360CA68EF
:1008400042600A6882604968C16030BD0021016071
:1008500041608160C160016141618161C16101628A
:100860004162816270470029016802D041F00101B4
:1008700002E04FF6FE72114001607047002A0268E4
:1008800001D00A4300E08A4302607047416070472C
:10089000406880B2704702460020D10002D5174957
:1008A000083901E0144908390968114200D00120D3
:1008B0007047C10003D51149091F086070470E49F0
:1008C00008394860704702460020D10002D50B4924
:1008D000083901E0084908390968114200D00120AF
:1008E0007047C10003D50549091F086070470249D8
:1008F00008394860704700000800024008040240C0
:100900008F4910B5884206D10121042000F049FA30
:10091000002104203BE08B49884206D101210820B8
:1009200000F03FFA0021082031E08749884206D1D3
:100930000121102000F035FA0021102027E0834922
:10094000884206D10121202000F02BFA002120202E
:100950001DE07F49884206D10121402000F021FAA4
:100960000021402013E07B49884206D101218020EC
:1009700000F017FA0021802009E0774988420AD167
:1009800084150121204600F00CFA00212046BDE824
:10099000104000F006BA10BD10B50121084600F065
:1009A00000FA0021BDE81040012000F0FAB9F0B5CE
:1009B000CC78002204F00F03E40601D58C782343A1
:1009C0000C784FF00F0C14F0FF0F4FF0010E1BD0FE
:1009D00005680E880EFA02F42640A64210D1960051
:1009E0000CFA06F725EA070703FA06F5CE783D4329
:1009F000282E02D0482E02D002E0446100E00461BB
:100A0000521C082AE5D305600A88FF2A1CD94468CD
:100A1000002202F108060EFA06F50E882E40AE42BC
:100A20000ED196000CFA06F7BC4303FA06F7CE780F
:100A30003C43282E00D14561CE78482E00D1056177
:100A4000521C082AE5D34460F0BD4FF6FF710180C7
:100A5000022181700421C170704702460020926813
:100A60000A4200D001207047806880B27047024679
:100A70000020D2680A4200D001207047C06880B2CE
:100A8000704701617047416170470AB10161704769
:100A900041617047C160704741F480328261816179
:100AA00082618169806970472C4B10B51A684FF6D6
:100AB0008074224042EA00100843186010BD2849A3
:100AC000C8617047F0B5254C002801DAE36900E001
:100AD0006368450D2E0185B2C0F30157B540C0F3E0
:100AE0000342032F05D0C6020AD503269640B3431E
:100AF00007E023F07062636823F07063636002E0D4
:100B0000AB4343F0706201B12A43002801DAE2618D
:100B1000F0BD6260F0BD10B58A0721F003040F49F3
:100B2000120F21440F238C6893409C438C608B6888
:100B3000904003438B6010BD0949C1F8DC00704749
:100B400000080140000C0140001001400014014069
:100B500000180140001C014000200140000001403D
:100B600000002042A548016841F001010160416890
:100B7000A34A114041600168A24A11400160016826
:100B800021F480210160416821F4FE0141604FF4AD
:100B90001F018160704799490A6822F480320A6017
:100BA0000A6822F480220A60B0F5803F07D0B0F5D1
:100BB000802F03D1086840F4A020086070470868BF
:100BC00040F48030F9E70346002059098B4A012997
:100BD0000AD002290AD0516A03F01F020123934070
:100BE0000B4200D0012070471168F5E7116AF3E766
:100BF00018B500204FF4A06400903120FFF7E3FF08
:100C00000099491C0091A14201D00028F5D0312063
:100C1000FFF7D9FF002800D0012018BD774A1168DE
:100C200021F0F80141EAC000106070477649086081
:100C30007047724B5A68084322F47C121043586084
:100C400070477149086670476C4A516821F003018A
:100C50000143516070476948406800F00C007047DC
:100C6000664A516821F0F001014351607047634AC0
:100C7000516821F4E0610143516070475F4A516857
:100C800021F4605141EAC000506070475B4A00297E
:100C9000517A01D0014300E08143517270475A49B3
:100CA000C1F8D8007047554A516821F440410143CA
:100CB000516070475149002281F8202081F820209E
:100CC000012802D0042802D1052081F820007047B5
:100CD0004E490860704749490A6A02430A627047F0
:100CE0004A4944390860704730B5444A5168484B16
:100CF00011F00C0103D0042901D0082901D00360B0
:100D000012E05168536801F470114FF0020413F4BB
:100D1000803F04EB914102D053689B0301D53D4BCA
:100D200000E03B4B5943016051680F2303EA111166
:100D3000394B5C5C0168E14041605468072505EA75
:100D400014241C5D21FA04F48460546805EAD42458
:100D50001B5DD940C1605268032303EA92322E4BD7
:100D60001B1F9A5CB1FBF2F1016130BD234A0029DF
:100D7000516901D0014300E08143516170471F4A2E
:100D80000029916901D0014300E0814391617047DE
:100D90001A4A0029D16901D0014300E08143D161A1
:100DA0007047164A0029D16801D0014300E0814311
:100DB000D1607047114A0029116901D0014300E058
:100DC00081431161704711494039086070470E49ED
:100DD000C86470470949C87170470848416A41F0C2
:100DE000807141627047054A0146002092680A42BC
:100DF00000D00120704701498872704700100240FE
:100E00000000FFF8FFFFF6FE00004242800442426D
:100E100000127A0000093D0018000020F94910B5C1
:100E2000884202D10121C41486E0B0F1804F09D07C
:100E3000F54988420DD101210220FFF7BBFF0021B7
:100E4000022064E001210846FFF7B4FF00210120E1
:100E50005DE0EE49884206D101210420FFF7AAFF98
:100E60000021042053E0EA49884206D101210820EC
:100E7000FFF7A0FF0021082049E0E649884206D19B
:100E800001211020FFF796FF002110203FE0E249EA
:100E9000884206D101212020FFF78CFF002120206D
:100EA00035E0DE49884202D10121441444E0DC49A6
:100EB000884202D10121CC043EE0DA49884202D1C5
:100EC00001210C0538E0D849884202D101214C05A6
:100ED00032E0D649884206D101214020FFF76AFF5F
:100EE0000021402013E0D249884206D10121802010
:100EF000FFF760FF0021802009E0CE4988420AD137
:100F0000841501212046FFF755FF00212046BDE84A
:100F10001040FFF74FBFC849884202D101210C049D
:100F20000AE0C649884202D101214C0404E0C449C8
:100F300088420AD101218C042046FFF732FF204667
:100F4000BDE810400021FFF72CBF10BD30B502886E
:100F5000AC4CB24DA0420DD0A8420BD0B0F1804FA6
:100F600008D0A94B984205D0A84B984202D0A84B74
:100F7000984203D122F070034A881A43A54B984245
:100F800006D0A54B984203D022F44073CA881A4376
:100F900002808A8882850A880285A0420AD0A842F7
:100FA00008D0A54A904205D0A44A904202D0A44A53
:100FB000904201D1097A01860121818230BD30B58C
:100FC000028C22F001020284028C8388048B22F0BE
:100FD000020224F073050C882C430D8915434A88BE
:100FE0002A43884DA8420BD08C4DA84208D0924D80
:100FF000A84205D0914DA84202D0914DA8420DD1F2
:1010000022F008054A8923F440732A4322F004059C
:101010008A882A438D891D43CB892B43838004838F
:10102000C9888186028430BD70B5028C22F010021E
:101030000284028C8388048B0D8824F4E6464FF6E4
:10104000FF7404EA052535430E8922F0200204EAE4
:10105000061616434A8804EA02123243694EB04229
:1010600002D06E4EB04215D122F080064A8923F498
:10107000406304EA0212324322F040068A8804EAFE
:10108000021232438E8904EA86061E43CB8904EAA3
:101090008303334383800583C9880187028470BD3D
:1010A00070B5028C22F480720284028C8388848B57
:1010B0000D8824F0730425430E894FF6FF7422F443
:1010C000007204EA062616434A8804EA02223243E2
:1010D0004C4EB04202D0514EB04215D122F40066BF
:1010E0004A8923F4405304EA0222324322F4806600
:1010F0008A8804EA022232438E8904EA06161E43D5
:10110000CB8904EA0313334383808583C9888187AD
:10111000028470BD70B5028C22F480520284058C6A
:101120008288838B0C8823F4E6464FF6FF7303EA2C
:101130000424344325F400560D8903EA053535436C
:101140004E8803EA06362E432E4DA84202D0334D78
:10115000A84205D122F480458A8903EA82122A43F3
:1011600082808483C988A0F84010068470BD828B79
:1011700022F440628283828B4FF6FF7303EA0121DF
:101180000A4382837047828B22F00C028283828B17
:101190000A4382837047028B22F440620283028BEF
:1011A0004FF6FF7303EA01210A4302837047F0B54B
:1011B000048C24F010040484078B048C4FF6FF7514
:1011C00027F4734705EA03333B4305EA02221A4337
:1011D0000C4B05EA011698420ED0104B98420BD0EA
:1011E000B0F1804F08D0084B984205D0074B984289
:1011F00002D0074B984225D124F02001314341F021
:10120000100124E0002C01400004004000080040D0
:10121000000C004000100040001400400034014069
:10122000004C0140005001400054014000180040B3
:10123000001C0040002000400040014000440140EC
:101240000048014024F0A0030B4343F01001028347
:101250000184F0BD028B22F00C020283028B0A4350
:101260000283704770B5048C24F001040484058B5C
:10127000048C4FF6FF7606EA0313134325F0F305BB
:10128000F84A2B4390420ED0F74A90420BD0B0F16F
:10129000804F08D0F54A904205D0F54A904202D0DE
:1012A000F44A904202D124F0020201E024F00A0242
:1012B0000A4342F001010383018470BD2DE9F84F18
:1012C0000D4604460888E74FDFF89CC3DFF89C838F
:1012D000DFF89C934988AA882B894FF0804A48B34D
:1012E00004282FD04FF6FF760828934632D0208C62
:1012F0009E4620F480502084A38B208C06EA013285
:10130000009223F4734306EA0B221A4306EA0E33D3
:101310001343BC420AD0644508D0544506D0444526
:1013200004D04C4502D0D34A944242D120F400501C
:10133000009940E02046FFF795FFE9882046BDE888
:10134000F84F87E72046FFF732FFE9882046BDE8DF
:10135000F84F20E7208C20F480702084B4F81CE043
:10136000208C06EA031306EA01222EF0F30E43EA6C
:101370000B0343EA0E030092BC420AD0644508D036
:10138000544506D0444504D04C4502D0B94A944255
:1013900003D120F40070009901E020F4206008439C
:1013A00040F48070A3832084E9882046BDE8F84F8C
:1013B000E9E620F40240084340F48050A3832084EF
:1013C000E9882046BDE8F84FD1E62DE9F0410C460A
:1013D000002649880746012501B90226A288012A6C
:1013E00000D10225208823890028384610D0FFF735
:1013F000DEFEE1883846FFF7CEFE23892A463146D5
:101400003846FFF72FFFE1883846BDE8F04121E775
:10141000FFF728FFE1883846FFF71CFF23892A469B
:1014200031463846FFF7C3FEE1883846BDE8F04153
:10143000B1E610B50A884B88CC881A438B882343C1
:101440001A430B891A434B8989891A430A43A0F826
:10145000442010BD4FF6FF71818000210180C180C2
:101460004180017270470021018041808180C180EC
:10147000018141818181C1817047002101804180CA
:1014800001228280C180018170470021018041805A
:101490008180C1800181418181817047002901885B
:1014A00002D041F0010101E021F00101018070470B
:1014B000002930F8441F02D041F4004101E0C1F39B
:1014C0000E0101807047002A828901D00A4300E0A2
:1014D0008A4382817047818270471143A0F8481087
:1014E0007047002A828901D00A4300E08A43828142
:1014F0007047018921F0070101817047028922F0BC
:1015000070020A430281704700B50346FFF7F6FFF9
:10151000188940F00700188100BD70B516460D46C9
:10152000602904464FF0010231460AD0FFF79AFEC7
:1015300029462046FFF7E2FF208940F0070020817E
:1015400070BDFFF734FEF3E730B504894FF6FF7541
:1015500005EA03231343E4B20B432343038130BD65
:1015600010B50446FFF7F0FF208940F07700208196
:1015700010BD10B50446FFF7E7FF208940F4804016
:10158000208110BD018582827047028822F070029E
:101590000A430280704770B50589048B068C25F0DC
:1015A00007050D434FF6FC410C4040F201110C437E
:1015B0004FF6FF7101EA031126F022061143314371
:1015C00005810483018470BD028B22F070020A43FE
:1015D00002837047028B4FF6FF7322F4E04203EA66
:1015E0000121114301837047828B22F070020A436C
:1015F00082837047828B4FF6FF7322F4E04203EA46
:1016000001211143818370470029018802D041F0F4
:10161000800101E021F0800101807047002981886C
:1016200002D041F0040101E021F004018180704703
:101630000029818802D041F0080101E021F0080171
:10164000818070470029818802D041F0010101E0CA
:1016500021F0010181807047028B22F008020A43C9
:1016600002837047002C0140003401400004004018
:1016700000080040000C0040028B4FF6FF7322F47C
:10168000006203EA012111430183EAE7828B22F021
:1016900008020A438283E4E7828B4FF6FF7322F449
:1016A000006203EA012111438183DAE7028B22F011
:1016B00004020A430283D4E7028B4FF6FF7322F43D
:1016C000806203EA012111430183CAE7828B22F081
:1016D00004020A438283C4E7828B4FF6FF7322F42D
:1016E000806203EA012111438183BAE7028B22F071
:1016F00080020A430283B4E7028B4FF6FF73C2F302
:101700000E0203EA012111430183AAE7828B22F032
:1017100080020A438283A4E7828B4FF6FF73C2F3F1
:101720000E0203EA0121114381839AE7028C22F021
:1017300002020A43028494E7028C22F008020A4360
:1017400002848EE7028C4FF6FF7322F0200203EA38
:1017500001111143018484E7028C4FF6FF7322F0DC
:10176000800203EA0111114301847AE7028C4FF6EB
:10177000FF7322F4007203EA01211143018470E730
:10178000028C4FF6FF7322F4006203EA0121114339
:10179000018466E7028C4FF6FF7322F4005203EADD
:1017A0000131114301845CE710B50123048C8B40A7
:1017B0009C430484038C8A401343038410BD10B5FA
:1017C0000423048C8B409C430484038C8A40134381
:1017D000038410BD30B50124058C00F118038C4042
:1017E000A543058489B108290FD0091FC1F34E0014
:1017F0001844016821F4E041016001684FF6FF736D
:1018000003EA02221143016030BD03EB510001687D
:1018100021F0700101600168F4E70029018802D01D
:1018200041F0020101E021F00201018019E70029E5
:10183000018802D041F0040101E021F0040101809F
:101840000FE70029818802D041F0800101E021F0FA
:101850008001818005E7028822F008020280028868
:101860000A430280FDE6828822F07002828082882C
:101870000A438280F5E6028922F00702028102898A
:101880000A430281EDE6028922F080020281028988
:101890000A430281E5E68184E3E68185E1E681860B
:1018A000DFE60187DDE68187DBE6A0F84010D8E6B9
:1018B000028822F44072028002880A430280D0E645
:1018C000808ECEE6008FCCE6808FCAE6B0F840006E
:1018D000C7E6808CC5E6008DC3E602460020128A6A
:1018E0000A4200D00120BCE6C9430182B9E60246A3
:1018F0000020138A92890B4202EA010202D0002AD8
:1019000000D00120ADE6C9430182AAE6C44910B562
:1019100088420AD101218C032046FFF742FA204673
:10192000BDE810400021FFF73CBABE49884202D111
:1019300001214C0410E0BC49884202D101218C04F1
:101940000AE0BA49884202D10121CC0404E0B84936
:1019500088420AD101210C052046FFF72BFA2046C8
:10196000BDE810400021FFF725BA10BD30B5044690
:10197000008A85B00D464CF6FF710840E9880143A6
:101980002182A0894EF6F3110840A9882A891143C3
:101990006A8902431143A181A08A4FF6FF410840A2
:1019A000A9890143A1826846FFF79EF99C488442B9
:1019B00001D1039800E00298A189090400EBC0015D
:1019C00001EB0010296801D5490000E08900B0FB57
:1019D000F1F06422B0FBF2F109010B096FF0180578
:1019E0006B4300EB8300A3891D044FF0320306D53F
:1019F00003EBC000B0FBF2F000F0070005E003EBE2
:101A00000010B0FBF2F000F00F000843208105B099
:101A100030BD4FF41651016000218180C1800181E9
:101A20000C2242818181704710B5028A4FF2FF0378
:101A30001A400B884C8823438C88C9880C43234365
:101A40001343038210BD0021018041808180C18049
:101A500070470029818902D041F4005101E021F44E
:101A600000518181704710B5C1F3421301F01F048A
:101A70000121A140012B07D0022B07D01430002AEE
:101A8000026805D00A4304E00C30F8E71030F6E7AE
:101A90008A43026010BD002A828A01D00A4300E016
:101AA0008A4382827047028A22F00F020282028AEF
:101AB0000A4302827047828922F40062828182890D
:101AC0000A43828170470029818902D041F00201D6
:101AD00001E021F0020181817047028A22F0200298
:101AE0000282028A0A43028270470029018A02D0D8
:101AF00041F4804101E021F4804101827047C1F34B
:101B00000801818070478088C0F308007047818990
:101B100041F0010181817047028BD2B20283028BB6
:101B200042EA012101837047028B02F47F42028363
:101B3000028B0A43028370470029818A02D041F058
:101B4000200101E021F02001818270470029818A73
:101B500002D041F0100101E021F0100181827047B4
:101B60000029818A02D041F0080101E021F008013A
:101B7000818270470029818902D041F4004101E04F
:101B8000C1F30E01818170470029818A02D041F49E
:101B9000006101E021F4006181827047828A22F0B5
:101BA00004028282828A0A43828270470029818AE3
:101BB00002D041F0020101E021F002018182704770
:101BC0000246002012880A4200D001207047C94313
:101BD0000180704770B501F01F0501260024C1F394
:101BE000421306FA05F2012B0FD0022B0FD0838A85
:101BF0004FEA11210088134206FA01F600EA0600B6
:101C000001D000B10124204670BD8389F0E7038A2A
:101C1000EEE70A0A01219140C943018070470000A4
:101C2000003801400044004000480040004C0040A3
:101C30000050004000F108014FF0FF32C0E90112EE
:101C4000C16001610021016070470021016170479E
:101C500042684A6093688B6093685960916008613C
:101C60000168491C0160704730B50C68621C02D0E5
:101C700000F1080202E0026904E01A4653681D6898
:101C8000A542FAD953684B6099608A605160086137
:101C90000168491C016030BDD0E9013201699A60D8
:101CA000D0E901235A604A68824201D182684A60C1
:101CB000002202610868401E0860704770B50D463A
:101CC000040005D140F21B12F7A1FEA008F0DAFCD7
:101CD00001F004FED4E90F20216802FB00116160CD
:101CE0000021A1632168A1600A46D4E90F01401ECA
:101CF00000FB0121E16021464FF0FF3001F8440F65
:101D0000487004F110004DB1FFF794FF04F1240076
:101D1000FFF790FF01F0FCFD012070BD2169002953
:101D2000F8D001F0B0F80028F4D0EA494FF0805024
:101D30000860BFF34F8FBFF36F8FEBE770B50E46B0
:101D4000050005D14FF4C472D7A1DEA008F09AFCBB
:101D500096B105FB06F0483001F06AFC040009D09A
:101D600004F1480120464EB10160C0E90F5601213F
:101D7000FFF7A4FF204670BD0020ECE70060F4E709
:101D80002DE9F041044601F0A9FD94F9455004F114
:101D9000240609E0606A48B1304601F074F808B1E1
:101DA00001F023F96D1E6DB2002DF3DC4FF0FF360C
:101DB00084F8456001F0ACFD01F090FD94F94450C9
:101DC00004F1100709E0206948B1384601F05BF8DA
:101DD00008B101F00AF96D1E6DB2002DF3DC84F834
:101DE0004460BDE8F04101F093BD2DE9F041856B01
:101DF000174604460026026C82B1C7B1E06807F0BE
:101E0000A8FAE168206C091AE1602268914202D2C6
:101E10006168081AE060022F16D017E02068A8B9A0
:101E2000606801F032F90646002060600EE0A068AC
:101E300007F08FFA216CA0680844A06061688842AE
:101E400004D32068A06001E005B16D1E6D1CA56380
:101E50003046BDE8F0812DE9FF4F83B01F468B4629
:101E600004004FF0000605D140F2D9228EA195A0C2
:101E700008F008FCBBF1000F07D1206C28B140F23C
:101E8000DA2289A18FA008F0FDFB022F08D1E06BB8
:101E9000012805D040F2DB2283A18AA008F0F2FBE2
:101EA00001F0AAF838B9059828B140F2DE227EA1E7
:101EB00084A008F0E7FB4FF0000A4FF08058DFF8ED
:101EC000149201F00BFDA06BE16B884205D3022F49
:101ED00003D00598C8B1DEB11EE03A465946204607
:101EE000FFF783FF616A19B104F1240000F0CBFF12
:101EF00028B1C9F80080BFF34F8FBFF36F8F01F097
:101F000007FD012007B0BDE8F08F01F001FD21E0E1
:101F1000684601F026F8012601F0FAFC00F0C6FC44
:101F200001F0DCFC94F94400401C01D184F844A089
:101F300094F94500401C01D184F845A001F0E8FC6B
:101F400005A9684601F01EF830B12046FFF718FFDA
:101F500000F01EFC0020D5E701F0C0FCA06BE16B97
:101F6000884201D1012500E0002501F0D1FC95B1A6
:101F700004F11000059900F048FF2046FFF700FF2C
:101F800000F006FC00289CD1C9F80080BFF34F8FF9
:101F9000BFF36F8F95E72046FFF7F2FE00F0F8FBE6
:101FA0008FE710B5024600210120FFF7C7FE041E8F
:101FB00007D00021416001600B460A46C160FFF76F
:101FC0004AFF204610BD2DE9F0471F46904689463E
:101FD000040005D140F29F3233A13AA008F052FB31
:101FE000B9F1000F07D1206C28B14FF468722EA10F
:101FF00034A008F047FB022F08D1E06B012805D080
:1020000040F2A13228A12FA008F03CFB01F0A5FC72
:102010005020EFF3118680F31188BFF34F8FBFF389
:102020006F8FA06BE16B884206D3022F04D0002093
:1020300086F31188BDE8F08794F945503A46494641
:102040002046FFF7D2FE681C04D06D1C84F8455072
:102050000120EDE7606A0028FAD004F1240000F0C6
:1020600012FF0028F4D0B8F1000FF1D00121C8F818
:102070000010EDE770B50E46040005D140F23C4279
:1020800009A110A008F0FEFA206C28B14FF4886274
:1020900005A10CA008F0F6FA206808BB6068F8B14A
:1020A00040F2454200A117E02E2E5C2E2E5C4672B7
:1020B000656552544F535C7372635C7175657565E9
:1020C0002E6300004572726F723A25732C25640DE1
:1020D0000A00000004ED00E0AFF2180008F0D2FAA8
:1020E00001F03BFC5020EFF3118580F31188BFF322
:1020F0004F8FBFF36F8FA16BE06B884218D994F9B3
:102100004500491CA163411C04D0401C84F84500D3
:1021100001200EE0606A0028FAD004F1240000F0EB
:10212000B2FE0028F4D0002EF2D001203060EFE79C
:10213000002085F3118870BD30B4026C0B46002A74
:102140000BD0C1681144C1604468A14201D3016849
:10215000C16030BC184607F0FCB830BC70472DE9B0
:10216000FF4F83B09B468A4604004FF0000607D11C
:1021700040F2DC42AFF2D001AFF2B80008F082FAD0
:10218000BAF1000F09D1206C38B140F2DD42AFF254
:10219000E801AFF2D00008F075FA00F02DFF48B961
:1021A000059838B14FF49C62AFF20411AFF2EC0025
:1021B00008F068FA4FF000094FF08057DFF86083AD
:1021C00001F08CFBA56B35B351462046E668FFF75E
:1021D000B3FFBBF1000F11D0E660606A50B104F1AB
:1021E000240000F050FE28B1C8F80070BFF34F8FF4
:1021F000BFF36F8F01F08CFB012083E66D1EA5639A
:10220000206810B900F093FF606020690028F1D0C9
:1022100004F11000E5E7059808B11EB106E001F0F1
:1022200077FB27E0684600F09CFE012601F070FB7A
:1022300000F03CFB01F052FB94F94400401C01D13A
:1022400084F8449094F94500401C01D184F84590ED
:1022500001F05EFB05A9684600F094FE00282046C8
:102260000AD0FFF78DFD00F093FA204600F04AF9FE
:102270000028A5D0002045E600F044F9D8B1206838
:1022800030B901F02BFB606800F0C1FE01F040FBAB
:1022900004F12400059900F0B8FD2046FFF770FD19
:1022A00000F076FA00288BD1C8F80070BFF34F8F8A
:1022B000BFF36F8F84E72046FFF762FD00F068FAF6
:1022C0007EE72DE9F04790468946040007D14FF498
:1022D000B462AFF22C21AFF2142008F0D3F9B9F1B7
:1022E000000F09D1206C38B140F2A152AFF2482161
:1022F000AFF2302008F0C6F901F02FFB5020EFF3C9
:10230000118780F31188BFF34F8FBFF36F8FA66BD8
:10231000F6B194F9445049462046FFF70DFF761E6A
:10232000A663681C04D06D1C84F84450012010E0A2
:1023300020690028FAD004F1100000F0A4FD002864
:10234000F4D0B8F1000FF1D00121C8F80010EDE78A
:10235000002087F311886DE62DE9F0410E46040058
:1023600007D140F2FC52AFF2C021AFF2A82008F032
:1023700089F94EB9206C48B140F2FD52AFF2D82134
:10238000AFF2C02008F07EF9206C38B940F2FE525E
:10239000AFF2EC21AFF2D42008F074F901F0DDFACD
:1023A0005020EFF3118580F31188BFF34F8FBFF3F7
:1023B0006F8FA06B30B131462046E768FFF7BCFE57
:1023C0000120E76085F3118843E510B5040007D1CB
:1023D00040F22F62AFF23031AFF2183008F052F90C
:1023E00001F07CFAA46B01F093FA204610BD10B501
:1023F000040007D140F24162AFF25431AFF23C30F9
:1024000008F040F901F06AFAD4E90E10441A01F01C
:102410007FFA204610BD10B5040007D140F251628A
:10242000AFF27C31AFF2643008F02CF9A06B10BD34
:102430003C4A002102EBC1035B68834206D10020C5
:1024400042F8310002EBC10148607047491C0A297B
:10245000F0D3704710B5040007D140F25D62AFF2CF
:10246000B831AFF2A03008F00DF92046FFF7E0FFD9
:102470002046BDE8104001F046B910B5040007D170
:1024800040F29372AFF2E031AFF2C83008F0FAF8E0
:10249000A06B08B1002010BD012010BD10B50400D4
:1024A00007D140F2BA72AFF20041AFF2E83008F063
:1024B000E9F8A06BE16B884201D1012010BD00203A
:1024C00010BD10B5174B002253F832401CB1521CFE
:1024D0000A2AF9D310BD43F8321003EBC201486059
:1024E00010BD10B500240F4A214602EBC1035B6802
:1024F000834202D152F8314002E0491C0A29F4D348
:10250000204610BD10B5044601F0E8F9A06B20B1DB
:10251000002401F0FDF9204610BD0124F9E7000078
:1025200004ED00E0800100202DE9F041054601F0B6
:10253000D5F9FE4EB068401CB0603068FC4F10B159
:10254000706930B32BE03560B068012827D10024D2
:1025500004EB840007EB8000FFF76CFB641C202C6D
:10256000F6D3F448FFF766FBF2481430FFF762FB3E
:10257000F0482830FFF75EFBEE483C30FFF75AFB8F
:10258000EC485030FFF756FBEA4870631430B063F4
:1025900005E03068E96AC06A884200D83560706A30
:1025A0000121401C7062E86A326981401143316147
:1025B00000EB800007EB8000291DFFF749FB01F0CD
:1025C000A7F9706900280CD03068E96AC06A8842AF
:1025D00007D2D9494FF080500860BFF34F8FBFF347
:1025E0006F8FBDE8F0812DE9FF5F8346DDE90E873F
:1025F000994616468A46900001F01AF805001AD04E
:10260000542001F015F8040012D025630021CDE913
:102610000241CDE900874B4632465146584600F00C
:1026200042FF2046FFF780FF012004B0BDE8F09F85
:10263000284601F068F84FF0FF30F6E770B5044621
:1026400001F04CF9B94D04B92C68201DFFF724FBAB
:1026500058B9E06AB64A00EB800152F8211021B95E
:1026600001218140286988432861A06A18B104F1DA
:102670001800FFF711FB686A401C686228688442F2
:1026800008D1AC48211D3C30FFF7E2FA6868401CD5
:10269000686007E0A868401EA860204600F056FF6A
:1026A00000F047FF01F034F96869002812D028686B
:1026B00084420FD1286B28B140F265429FA1A6A0A9
:1026C00007F0E0FF9C494FF080500860BFF34F8F48
:1026D000BFF36F8F70BD2DE9F041944F0026386B2A
:1026E00038B1B869401CB861F86900B101263046BC
:1026F00077E7FD686D1CFD6011D1786B006828B12B
:1027000040F6D9128DA194A007F0BCFF786BB96B8D
:102710007963B863386A401C386200F00AFFB86A0F
:10272000DFF80C82854209D3786B006880B1786B42
:10273000C068C468606885420DD2B8623868C06AF3
:1027400000EB800158F821000128CDD90126CBE704
:102750004FF0FF30F1E7201DFFF79EFAA06A18B195
:1027600004F11800FFF798FAE06A01213A69814004
:102770001143396100EB800108EB8100211DFFF757
:1027800067FAE06A3968C96A8842CDD30126CBE787
:102790002DE9F047654D00242746286B28B94FF4F2
:1027A000FD6266A16CA007F06DFF01F097F8286B41
:1027B000401E2863286BE0BBA8685E4928310126CB
:1027C000B8B3DFF86C918846D8F80010E9B1D8F8B2
:1027D0000C00C46804F11800FFF75EFA201DFFF733
:1027E0005BFAE06A2A6906FA00F11143296100EBFD
:1027F000800109EB8100211DFFF72AFAE06A2968B0
:10280000C96A8842E0D3EE61DEE70CB100F091FEC8
:10281000AC693CB1FFF75FFF00B1EE61641EF9D116
:102820000020A861E86920B1434901273807086002
:1028300000E003E0BFF34F8FBFF36F8F01F068F844
:102840003846BDE8F0872DE9F041384E0F46044682
:10285000F5683068001DFFF71FFA38B9306890F846
:102860002C1001208840316981433161601C08D1FE
:102870003FB13168BDE8F0412E485030091DFFF7E7
:10288000E7B930682C44AC424460316805D2B06B83
:10289000BDE8F041091DFFF7E7B9706B091DFFF7AF
:1028A000E3F9B06A844200D2B4629AE61F48016B31
:1028B000491C016370472DE9F0410E4605004FF0B9
:1028C000000405D140F279421CA123A007F0DAFEF2
:1028D0002EB940F27A4219A11FA007F0D3FE134F80
:1028E000386B28B140F27B4214A11BA007F0CAFE4E
:1028F000FFF7DCFFFA6828688119904202D9884204
:1029000002D804E0884201D8914200D9012429600C
:102910001CB1881A0021FFF796FFFFF739FF002846
:1029200026D105494FF0805008601DE028000020A6
:10293000D00100205004002004ED00E02E2E5C2E7B
:102940002E5C4672656552544F535C7372635C74BF
:1029500061736B732E6300004572726F723A257358
:102960002C25640D0A000000BFF34F8FBFF36F8F5B
:1029700037E610B5040014D0FE49096B39B140F2B6
:10298000CF42AFF24801AFF2300007F07BFEFFF715
:102990008DFF00212046FFF756FFFFF7F9FE0028C4
:1029A00007D1F5494FF080500860BFF34F8FBFF358
:1029B0006F8F10BD70B5050007D140F2FB42AFF23A
:1029C0008401AFF26C0007F05DFEEA4E306885428C
:1029D00001D1002070BD00F081FF6C6900F098FF0C
:1029E000706B844202D0B06B844201D1022070BD72
:1029F000E248844204D1A86A0028F7D1032070BDC0
:102A0000DE481438844202D00CB1012070BD04208D
:102A100070BD10B5044600F061FF0CB9D5480468DC
:102A2000E46A00F075FF204610BD10B5044600F0C2
:102A300094FF5020EFF3118180F31188BFF34F8F83
:102A4000BFF36F8F0CB9CB480468E06A81F311883B
:102A500010BD2DE9F04100260D460446202908D37B
:102A60004FF4B062AFF22C11AFF2141007F00AFE6F
:102A70001F2500F033FFBF4F04B93C68606CA842CB
:102A80003FD03968854206D98C4207D03968C96A77
:102A9000A94202D902E08C4200D10126E16A8846AF
:102AA000884200D1E5626564A069002802DBC5F1B7
:102AB0002000A061B24D08EB8800616905EB800041
:102AC000814215D1201DFFF7E7F8012120B93A69AD
:102AD00001FA08F082433A61E06A3A6981401143A1
:102AE000396100EB800005EB8000211DFFF7B0F895
:102AF0003EB1A1494FF080500860BFF34F8FBFF344
:102B00006F8FBDE8F04100F003BF70B5994D286BA1
:102B100010B10120E86170BD0020E8612869984E7D
:102B2000B0FA80F0C0F11F0000EB800456F82400DA
:102B300038B940F6F622AFF2FC11AFF2E41007F01C
:102B4000A1FD06EB840000F108024168496841607C
:102B5000914201D149684160C868286070BD70B574
:102B6000044600F0BBFE834D04B92C68201DFFF71E
:102B700093F858B9E06A824A00EB800152F82110BC
:102B800021B901218140286988432861A06A18B1D0
:102B900004F11800FFF780F8211D7848FFF758F876
:102BA00000F0B6FE686928B100F098FE00F0C1FCA4
:102BB00000F0AEFE2868844213D1686990B1286B9A
:102BC00038B140F25762AFF28C21AFF2742007F0B7
:102BD00059FD69494FF080500860BFF34F8FBFF334
:102BE0006F8F70BD6548A9680068884202D10020D7
:102BF000286070BDBDE8704087E770B5002504000F
:102C000007D140F28162AFF2CC21AFF2B42007F0DD
:102C100039FD5A496069884205D1A06A283988423D
:102C200001D000B90125284670BD70B504002BD035
:102C3000504D2868844231D000F050FE2046FFF706
:102C4000DCFFE8B1201DFFF727F8E06A01212A69BF
:102C50008140114329614A4900EB800001EB80006B
:102C6000211DFEF7F5FFE06A2968C96A884207D38B
:102C700041494FF080500860BFF34F8FBFF36F8F13
:102C8000BDE8704000F044BE40F2AB62AFF2543198
:102C9000AFF23C30BDE8704007F0F4BC70BD2DE9E8
:102CA000F0410026040007D140F2E262AFF2743135
:102CB000AFF25C3007F0E6FC00F04FFE5020EFF37F
:102CC000118580F31188BFF34F8FBFF36F8F2046BC
:102CD000FFF793FFF0B1274F386B20B1274804F17D
:102CE0001801283814E0E06A3968C96A884200D3BC
:102CF0000126201DFEF7D0FFE06A01213A698140DC
:102D0000114339611E4900EB800001EB8000211D59
:102D1000FEF79EFF85F31188304662E4184E4FF0AF
:102D20008054154D00F01CFC30680128FAD92C6045
:102D3000BFF34F8FBFF36F8FF4E71CB50D4800242E
:102D40002C30CDE90040234680220EA10F48FFF72A
:102D50004AFC01280CD0401C2BD140F28472AFF207
:102D60002441AFF20C4002B0BDE8104007F08ABC2D
:102D700050200DE02800002004ED00E0A004002019
:102D8000D001002049444C45000000001D2D0008E2
:102D900080F31188BFF34F8FBFF36F8FFB484FF065
:102DA000FF31816201214161C460BDE81C4000F037
:102DB00053BD1CBD502080F31188BFF34F8FBFF36C
:102DC0006F8FF2490020486100F07CBDEF48C06879
:102DD000704710B500F0C1FDEC48C06810BDEB486D
:102DE0008068704710B510B104461CB10AE0E7488E
:102DF0000468FAE740F68C02AFF2C041AFF2A84097
:102E000007F040FC04F1340010BD70B50D4604001D
:102E100007D140F60632AFF2DC41AFF2C44007F012
:102E200031FCDA48016820461831FEF71DFF2846BC
:102E3000BDE87040012106E52DE9F04117460E4638
:102E4000050007D140F61732AFF21051AFF2F8404B
:102E500007F018FCCD4C206B38B940F61B32AFF2AE
:102E60002451AFF20C5007F00DFC216846F00040F1
:102E70008861216828461831FEF7EAFE3846BDE829
:102E8000F0410121DFE42DE9F041C068C4683CB99C
:102E900040F66132AFF25C51AFF2445007F0F2FB02
:102EA00004F118000746FEF7F7FEB84D286B01261F
:102EB00058B13946B648FEF7CBFEE06A2968C96AC0
:102EC000884212D90120EE6112E4201DFEF7E4FED3
:102ED000E06A2A6906FA00F111432961AD4900EB65
:102EE000800001EB8000211DE5E70020DDE470B5E6
:102EF000A64D06460C46286B38B940F69932AFF21B
:102F0000C451AFF2AC5007F0BDFB44F0004030605C
:102F1000F4683CB940F6A132AFF2E051AFF2C850CC
:102F200007F0B0FB3046FEF7B7FE201DFEF7B4FEFB
:102F3000E06A01262A6906FA00F1114329619549E0
:102F400000EB800001EB8000211DFEF781FEE06AAE
:102F50002968C96A884202D90120EE6170BD00204B
:102F600070BD10B5040007D140F6C132AFF2346134
:102F7000AFF21C6007F086FB8448016A2160C068DC
:102F8000606010BD70B50D46040007D140F6CB322D
:102F9000AFF25861AFF2406007F074FB3DB940F604
:102FA000CC32AFF26861AFF2506007F06BFB00F01B
:102FB00095FC764AD06829684B1C0FD02368126AAA
:102FC000934202D0626882420AD96268801A8842BB
:102FD00006D2081A28602046FFF7C3FF002400E04D
:102FE000012400F095FC204670BD68490120C861AD
:102FF00070476648006870476448416919B1006BC2
:1030000018B100207047012070470220704770B54A
:10301000040039D05D4DE06A2968C96A884233D21C
:10302000A069002804DB2868C06AC0F12000A06104
:10303000E06A584E00EB8000616906EB8000814237
:103040001FD1201DFEF728FE012150B9E06A00EBD8
:10305000800256F8222022B92A6901FA00F0824340
:103060002A612868C06AE0622A69814011432961A7
:1030700000EB800006EB8000211DBDE87040FEF7EC
:10308000E7BD2868C06AE06270BD70B504004FF00B
:10309000000640D03D4D2868844207D040F6C76204
:1030A000AFF26871AFF2507007F0ECFAA06C38B96B
:1030B00040F6C962AFF27C71AFF2647007F0E2FAD9
:1030C000A06C401EA064626CE16A914223D010BBE8
:1030D000201DFEF7E1FD2F49012250B9E06A00EB07
:1030E000800351F8233023B92B6902FA00F083439F
:1030F0002B61606CE062C0F12000A061E06A2B6986
:1031000082401A432A6100EB800001EB8000211D00
:10311000FEF79EFD0126304670BD1C4908680A680E
:103120008069D26A0968C2F120028A617047174932
:10313000086818B10868826C521C8264086870477D
:1031400070B50C46064600F0C9FB104D2868C06CEF
:1031500080B92968012081F850005CB10121204626
:10316000FFF771FB0C494FF080500860BFF34F8FA1
:10317000BFF36F8F00F0CCFB00F0B0FB2868C46C8D
:10318000002074B156B12968C8640AE02800002004
:1031900078040020D001002004ED00E02A68611EC0
:1031A000D164296881F8500000F0B2FB204670BD60
:1031B0002DE9F0411E4615468846074600F08EFB75
:1031C000FA4C206890F85000022814D02068C16C96
:1031D000B943C1642168012081F850005EB101212A
:1031E0003046FFF730FBF2494FF080500860BFF3E4
:1031F0004F8FBFF36F8F00F08BFB00F06FFB15B1AB
:103200002068C06C2860206890F8500001280DD01C
:103210002068C16C21EA0801C164012521680020F1
:1032200081F8500000F074FB284676E50025F5E7AC
:103230002DE9F0411F4690460D4604004FF001066F
:1032400007D141F2FD02AFF60C11AFF6F40007F022
:1032500019FA00F043FB0FB1E06C386094F85000AD
:10326000022184F85010B8F1050F0ED2DFE808F003
:103270000D03060C0A00E16C294301E0E16C491CD6
:10328000E16402E0022803D0E564012802D02AE0CC
:10329000002628E0201DFEF7FFFCC44DE06A012156
:1032A0002A69814011432961C24900EB800001EB8A
:1032B0008000211DFEF7CCFCA06A38B141F2351226
:1032C000AFF68811AFF6701007F0DCF9E06A2968F4
:1032D000C96A884207D9B6494FF080500860BFF3E9
:1032E0004F8FBFF36F8F00F013FB304615E52DE9CC
:1032F000F0471F46DDF8209092460D4604004FF03F
:10330000010807D141F26812AFF6D011AFF6B8103C
:1033100007F0B8F900F021FB5020EFF3118680F39D
:103320001188BFF34F8FBFF36F8F0FB1E06C386020
:1033300094F85000022184F85010BAF1050F0ED213
:10334000DFE80AF00D03060C0A00E16C294301E0F6
:10335000E16C491CE16402E0022803D0E564012825
:1033600003D031E04FF000082EE0A06A38B141F2FE
:10337000AF12AFF63821AFF6202007F083F98B4D5E
:10338000286B012778B104F118018B48FEF760FC27
:10339000E06A2968C96A884216D9B9F1000F12D0CB
:1033A000C9F8007010E0201DFEF776FCE06A2A697B
:1033B00007FA00F11143296100EB80017D4800EB21
:1033C0008100211DE2E7EF6186F311884046BDE8E8
:1033D000F0872DE9F0418846040007D141F2E3125D
:1033E000AFF6A821AFF6902007F04CF900F0B5FA3F
:1033F0005020EFF3118780F31188BFF34F8FBFF395
:103400006F8F94F85000022184F85010E16C491C31
:10341000E16401282ED1A06A38B141F20922AFF649
:10342000E421AFF6CC2007F02DF9604D286B012682
:1034300078B104F118016048FEF70AFCE06A2968D7
:10344000C96A884216D9B8F1000F12D0C8F80060D6
:1034500010E0201DFEF720FCE06A2A6906FA00F160
:1034600011432961534900EB800001EB8000211DCD
:10347000E2E7EE6187F311884FE410B558B10446D6
:1034800000F02CFA94F85000022807D0002400F035
:103490003FFA204610BD45480468F1E7002084F853
:1034A00050000124F3E72DE9F0470E46DDE90984D9
:1034B00082466FF00301206B01EB82010844089DF6
:1034C00020F007079946780705D040F22B323BA140
:1034D00041A007F0D7F800202218315C82F83410A0
:1034E000315C11B1401C1028F6D3002684F84360EB
:1034F000202D00D31F25E562C4E91156201DFEF7DB
:10350000A4FB04F11800FEF7A0FB2461C5F1200024
:103510006462A061E66484F850604A4651463846C9
:1035200000F07DF92060B8F1000F01D0C8F800402C
:103530004DE71E48416B096829B1416BC968C968EC
:103540004968816270474FF0FF31FAE710B50446D1
:10355000006B00F0D8F82046BDE8104000F0D3B86A
:1035600070B5154E114D14361CE0FFF79FF9306809
:1035700020B10024FFF70CF9A4B901E00124F9E718
:1035800000F0ACF9F068C468201DFEF785FBA86860
:10359000401EA8606868401E686000F0B9F92046C7
:1035A000FFF7D4FF68680028DFD170BD2800002035
:1035B00004ED00E0D0010020780400202E2E5C2EC7
:1035C0002E5C4672656552544F535C7372635C7433
:1035D00061736B732E6300004572726F723A2573CC
:1035E0002C25640D0A00000030B5744900E0114636
:1035F0000A688242FBD34B685C18844203D140685E
:1036000018444860084643681C18944209D16B4C22
:10361000103C2468A24209D052681A4442600A68E9
:1036200012680260814200D0086030BD0460F9E792
:103630002DE9F04105460026FFF738F95F4F103FAE
:10364000386808B900F098F8F86805424ED1002DA6
:103650004CD0083568070BD005F00700C0F1080012
:103660000544680704D0BF2255A15FA007F00AF8FF
:10367000002D3BD07868854238D850490846046808
:1036800001E0214604466068A84202D22068002872
:10369000F7D13868B846844228D00E6820680860A0
:1036A00060680836401B10280ED96719780704D0C7
:1036B000EC2243A14CA006F0E5FF6068401B786057
:1036C00038466560FFF790FF6168D8F8040042460D
:1036D000401AC8F80400D8F80830984200D2906028
:1036E000D8F80C0001430020C4E90001FFF750F8AE
:1036F000700705D04FF4967231A13BA006F0C2FFCF
:103700003046BDE8F08170B500282BD02B4DA0F1DC
:103710000804103D6068E968084205D14FF4A072C2
:1037200027A131A006F0AEFF206828B140F2411277
:1037300023A12DA006F0A6FF6068E968084211D019
:103740002268002A0ED188436060FFF7AFF86068F6
:103750006968084468602046FFF746FFBDE870408E
:10376000FFF716B870BD1548103840687047134809
:1037700010388068704770471F484FF41041420767
:1037800006D0C01D1C4920F00700411AC1F51041A8
:103790000A4A00230144C2E900030839103A21F023
:1037A000070111604B600B600B1AC0E900139360B6
:1037B0004FF000405360D06070470000740000205C
:1037C0002E2E5C2E2E5C4672656552544F535C70F3
:1037D0006F72745C4D656D4D616E675C686561709C
:1037E0005F342E63000000004572726F723A2573D9
:1037F0002C25640D0A000000B404002069484068CC
:10380000401C04D0F42268A171A006F03BFF5020B8
:1038100080F31188BFF34F8FBFF36F8FFEE710B5B2
:10382000031F4FF080741C601B1F21F00101196001
:10383000191F6B4B0B60143940380A6010BD694882
:103840004FF47A710068B0FBF1F14FF0E020491EAF
:1038500041610721016170471CB5634908780190F7
:10386000FF20087008788DF800009DF800004D4A90
:1038700000F0500010700720906007E09068401E34
:1038800090609DF8000040008DF800009DF8000059
:103890000006F3D4107A000200F4E0609060019812
:1038A00008705248016841F470010160016841F0FC
:1038B00070410160FFF7C3FF00205060FCF754FC2B
:1038C00000201CBD37484068B0F57A7F05D04FF422
:1038D000B57235A13EA006F0D5BE7047502080F3EA
:1038E0001188BFF34F8FBFF36F8F2E494868401C7C
:1038F000486001280BD13D481C38006810F0FF0FCC
:1039000005D04FF4BD7228A131A006F0BBBE7047B0
:1039100010B5244C606828B940F2811222A12CA075
:1039200006F0B0FE6068401E606001D180F311882F
:1039300010BD10B5502080F31188BFF34F8FBFF337
:103940006F8FFEF7C8FE20B128494FF080501C3918
:103950000860002080F3118810BD10B5FCF73AFC18
:10396000104C10280CD300F1E02090F8F0032178DF
:10397000884205D24FF42A720BA115A006F082FEF0
:103980001A4814380068A16800F4E060884207D93A
:10399000BDE810404FF42E7203A10DA006F072BED8
:1039A00010BD00007C0000202E2E5C2E2E5C467286
:1039B000656552544F535C706F72745C5256445339
:1039C0005C41524D5F434D335C706F72742E6300E7
:1039D0004572726F723A25732C25640D0A0000003F
:1039E000FD3700080000002000E400E020ED00E0CA
:1039F0001CB54FF44070FCF7AFFC4FF4E13001F020
:103A000078FE03F058F909490120CDE9000142028E
:103A1000002307A10A48FEF7E6FD012802D04FF077
:103A2000FF301CBDFFF789F9FEE700008800002089
:103A30004170705461736B4372656174650000007E
:103A4000653A00087047FEE7FEE7FEE7FEE77047CD
:103A500010B5FFF7D1FA012803D0BDE81040FFF7F9
:103A600068BF10BD2DE9FC41FFF738FF00220C2193
:103A70000A20FEF763F9414D686148B140A13B203F
:103A8000CDE90001454B46A24BA1032002F0BDF851
:103A90003A4E0324361DCDE900464FF4007700234B
:103AA0003A4647A14948FEF79EFD012809D148A1A1
:103AB0004320CDE90001394B39A23FA1032002F098
:103AC000A4F8CDE9004600233A4647A14A48FEF74C
:103AD0008AFD012809D149A16320CDE900012F4BBE
:103AE0002FA235A1032002F090F8244800230830CB
:103AF000CDE900403A4648A14A48FEF774FD012846
:103B000009D149A16E20CDE90001244B24A22AA1AC
:103B1000032002F07AF8194800231030CDE9004064
:103B20003A4648A14A48FEF75EFD012809D149A15D
:103B30007720CDE90001194B19A21FA1032002F043
:103B400064F80E4800230C30CDE900403A4647A106
:103B50004948FEF748FD012809D148A17F20CDE959
:103B600000010E4B0EA214A1032002F04EF82868AB
:103B7000FEF764FDBDE8FC41FFF7CABE8C000020E3
:103B80006372656174207461736B2071756575650E
:103B900020737563636565642100000014B8000834
:103BA0002E2E5C2E2E5C557365725C7461736B5F98
:103BB000696E69742E630000494E4954000000008C
:103BC0006C65645F7461736B00000000953C0008D5
:103BD0006372656174206C6564207461736B20731B
:103BE00075636365656421006D7075363035305FCF
:103BF0007461736B00000000753E000863726561BC
:103C00007420636D64207461736B207375636365E6
:103C10006564210A000000006D6F746F725F74614B
:103C2000736B00008D4000086372656174206D6FD6
:103C300072746F72207461736B2073756363656552
:103C400064210000636D645F7461736B00000000A9
:103C5000B9420008637265617420636D6420746109
:103C6000736B207375636365656421006164635FD2
:103C70007461736B00000000F946000863726561AF
:103C80007420616463207461736B20737563636572
:103C9000656421001FB504224249684600F085FE94
:103CA0009DE80F00404D85E80F004FF480523F49DA
:103CB000684600F07AFE9DE80F0010353C4C85E820
:103CC0000F002846103D616900F04CFE28466169EE
:103CD00000F048FE37A14020CDE90001394B3AA25F
:103CE00041A1032001F091FF00F00DF8002405EB45
:103CF000041000F03BFE641CE4B2022CF7D30A204F
:103D0000FEF737FEF0E710B5384C88B001230022EB
:103D100004A92068FEF723FA012826D19DF8100097
:103D2000002822D100231A4604A92068FEF717FABA
:103D3000DDE905232EA156208DE80F00214B37A287
:103D400009333EA1042001F060FFDDE9050100F028
:103D50000EF8002809D016490698134A51F8201089
:103D6000059802EB001000F0FDFD08B010BD0EB587
:103D7000022803D3012232A1602006E0052901DCDC
:103D800000280DDA052234A164208DE807000D4BD0
:103D900022A2163329A1032001F037FF00200EBD17
:103DA00001200EBD00140140B49400200010014019
:103DB000A40000204C65643120696E6974210D0AED
:103DC000000000006AB800082E2E5C2E2E5C4170A8
:103DD000706C69636174696F6E5C6C65645F74615B
:103DE000736B2E63000000004C454400A0000020CF
:103DF000B1BEB4CEBDD3CAD5B5BDB5C4CAFDBEDD56
:103E0000CAC7206964203D2025642C7374617465E1
:103E1000203D202564200A0A000000002E2E5C2E82
:103E20002E5C4170706C69636174696F6E5C6C6567
:103E3000645F7461736B2E63000000004C454400A6
:103E40005468652069642076616C756520696E2010
:103E500030207E20256400005468652073746174EE
:103E6000652076616C756520696E2030207E202586
:103E7000640000004E4C90B04C482060606080159B
:103E8000A0604000E0604B482063204601F018F934
:103E900049A11522CDE9002102904E4B4EA257A117
:103EA000032001F0B2FE04F035FA04F13C00089062
:103EB000001F0990001F0DF12C090DF1340A4FF07D
:103EC000240B0A90DDE90910089A04F06DFA09F153
:103ED0000403E56F0BA936489A1EA8470AF10403AC
:103EE000D4F880500DA932489A1EA847BDF92C007D
:103EF0004FF4FA614843C11700EB5140C01305F07D
:103F0000BEFEE064BDF92E004FF4FA614843C117CC
:103F100000EB5140C01305F0B2FE2065BDF9300042
:103F20004FF4FA614843C11700EB5140C01305F04C
:103F3000A6FE6065BDF93400C000C11700EB51401A
:103F4000C01305F09CFE2064BDF93600C000C11707
:103F500000EB5140C01305F092FE6064BDF93800DB
:103F6000C000C11700EB5140C01305F088FEA064EB
:103F7000E06B05F0D0FE07468846A06B05F0CBFE4F
:103F800005460E46606B05F0C6FE02AA114B82E89C
:103F9000E3011BA1CDE900B10FA218A1052001F09A
:103FA00034FE6420FEF7E5FC8CE70000000C0140C5
:103FB00048950020DF4800084D50553630353020F8
:103FC000696E6974204944203D205B307825785D16
:103FD000000000008EB800082E2E5C2E2E5C417072
:103FE000706C69636174696F6E5C6D7075363035C5
:103FF000305F7461736B2E6300000000494D550003
:10400000616E676C65205B25665D5B25665D5B2583
:10401000665D000000B57C4885B07A4901220160E8
:104020000261416002224261816004228261C160BA
:104030000822C0E90721416210222021C0E90C2199
:10404000724981629202C1625100C0E90E2142F2BE
:1040500010726F49684601F0DEFA6B481422694617
:10406000403005F076F9684801F041F966482030A3
:1040700001F03DF967A17D20CDE90001694B6AA2FD
:1040800071A1032001F0C1FD05B000BD0EB501F026
:104090009FFBFFF7BFFF6E4D6E4C6F4E012300225A
:1040A00069462868FEF75BF8012815D19DF80000E5
:1040B000012811D100231A4669462868FEF74FF8F7
:1040C0009DF80500411E032906D804EB80000299E3
:1040D00050F8042C4C48904700F068F822683146AC
:1040E000494890476268314647489047A268314640
:1040F00045489047E2683146434890476420FEF7C0
:1041000038FCCBE770B50C4600F14005B1F5000F67
:1041100001DB022200E00122002101F0EAF8224640
:104120002846BDE87040002101F094BA70B50C46F5
:1041300000F14005B1F5000F01DB022200E0012291
:10414000012101F0D6F822462846BDE87040012141
:1041500001F080BA70B5034620300D4603F14004EB
:10416000B1F5000F01DB012200E00222002101F085
:10417000C0F82A462046BDE87040022101F06ABA24
:1041800070B5034620300D4603F14004B1F5000F31
:1041900001DB012200E00222012101F0AAF82A46F7
:1041A0002046BDE87040032101F054BA2DE9F047E4
:1041B000154E2A4FDFF8A880DFF8A890DFF8A8A0F6
:1041C0000024A01CC0B201F00EFB06EBC40500B237
:1041D000A5F8540005F061FD00223B4605F0E0FC27
:1041E0000022434605F0DCFC4A46534605F066FCD7
:1041F00005F0A4FD641CE4B2A865042CE1D3BDE87D
:10420000F087000000100140D4940020000C014011
:10421000003401404D6F746F7220696E6974210D16
:104220000A0000009BB800082E2E5C2E2E5C417008
:10423000706C69636174696F6E5C6D6F746F725FCF
:104240007461736B2E6300004D4F544F5200000099
:10425000A0000020BC000020CDCC4C3E0000264039
:1042600000002440728A8EE4F21FCA3F7FB5A0A1ED
:104270005420CDE90001A44BA4A2ACA1052001F07B
:10428000C4FC0024AA4D5626AAA155F83400039078
:104290000096CDE901149C4B9CA2A4A1052001F03D
:1042A000B4FC641CA4B2042CEED37FBD0146A0482C
:1042B0000838006804F0F5BF3EB54FF40075284695
:1042C00004F0CFFF9A4C083C206018B32A46042122
:1042D000974804F055FF6060002827D099A13C2042
:1042E000894BCDE90001093B88A290A1032001F090
:1042F0008CFC9749974801F0EDF90A20FEF739FB4D
:1043000095A0FFF7B3FF02A9206804F0D7FF0028AB
:104310002ED032E092A132207B4BCDE90001093B47
:104320007AA282A1012001F070FC0DE091A1382059
:10433000754BCDE90001093B74A27CA1012001F07D
:1043400064FC206804F0A3FFFFF7C8FA8D480068FA
:10435000FEF774F98CA14B206B4BCDE90001093BB2
:104360006AA272A1012001F050FCFFF7D1FA3EBD14
:104370009DF80810606804F02BFF0A20FEF7F9FA98
:10438000C1E73EB500230C461A46FDF764FD2278CE
:1043900083A193208DE807005B4B5CA2133363A1DC
:1043A000042001F032FC3EBD10B588B00446002068
:1043B0008DF8100080A1204604F0EFFF00281BD0EC
:1043C00006AB05AA7DA1204605F032F8002811D0E1
:1043D000DDE905237EA163208DE80F004A4B4BA247
:1043E000193B52A1032001F010FC804804A9006889
:1043F000FFF7C7FF08B010BD7DA16720424BCDE994
:104400000001193B41A249A1052001F0FEFBF1E7A3
:1044100010B58AB0044601208DF8180066A1204628
:1044200004F0BBFF002824D003AB09AA7DA12046DD
:1044300004F0FEFF00281AD00998C4B203988DF842
:104440001D40089005F067FCCDE904017AA07721B2
:10445000CDE900102C4B2DA20933029433A1032087
:1044600001F0D3FB614806A90068FFF78AFF0AB094
:1044700010BD78A17C20244BCDE90001093323A293
:104480002AA1052001F0C1FB7FA17D201E4BCDE9B3
:10449000000109331DA225A1052001F0B6FBE6E7C6
:1044A00030B585B0054602208DF8080082A1284667
:1044B00004F073FF4D4C08B1012005E080A12846AF
:1044C00004F06BFF40B100208DF80C0002A92068B9
:1044D000FFF757FF05B030BD7BA18B200A4BCDE91C
:1044E0000001113B09A211A1052001F08EFBF1E7AB
:1044F000596F752063616E2075736520746865203F
:10450000636D643A00000000BFB800082E2E5C2ED8
:104510002E5C4170706C69636174696F6E5C636D71
:10452000645F7461736B2E6300000000434D4400B0
:10453000D40000205B636D6425645D3A2025732000
:1045400000000000436D6420696E6974210D0A004B
:10455000AD420008003801404E554C4C00000000B0
:104560004275666665722063726561746520666176
:10457000696C0000436D6420637265617465206638
:1045800061696C0098000020636D645F7461736BF7
:10459000207761732064656C657465642100000098
:1045A00073656E6420706B675B25645D2073756353
:1045B0006365656421000000736574007365742091
:1045C000696420256420737461746520256400008B
:1045D000536574206C65645B25645D20737461743D
:1045E000655B25645D200D0A00000000A00000202E
:1045F000536574206C65642073746174652C206647
:104600006F726D61743A205B6C6564207365742011
:104610006964203120737461746520315D200D0A56
:1046200000000000736574206964202564207370A5
:104630006565642025660000536574206D6F746F96
:10464000725B25645D2073706565645B25665D2023
:104650000D0A0000536574206D6F746F72207370C3
:104660006565642C20666F726D61743A205B6D6FB6
:10467000746F7220736574206964203120737065D3
:10468000656420302E325D0054686520706172616F
:104690006D657465722069733A2069645B317E349C
:1046A0005D2073706565645B2D312E3030207E2077
:1046B000312E30305D0D0A0073686F770000000006
:1046C000657869740000000053686F772062617438
:1046D0007465727920766F6C746167652C20666FE3
:1046E000726D61743A205B6164632073686F772F29
:1046F000657869745D0000001CB500F00FFD3CA1F9
:104700002120CDE900013D4B3DA245A1032001F050
:104710007CFA00F02CF800F004F86420FEF729F988
:10472000F7E71FB53F48007801281FD13E480088B1
:1047300005F0AEFA6FF00B0105F0B4F905F0EBFAF5
:104740004FF06632394B05F0B9F90022384B05F0CD
:10475000B5F9CDE9020137A12B20284BCDE90001A5
:1047600009333AA241A1032001F04FFA1FBD10B551
:104770003F4C86B00123002203A92068FDF7EFFC1F
:1047800001281BD19DF80C203AA135208DE80700A7
:104790001A4B2EA21F3335A1042001F036FA9DF8E2
:1047A0000C0002280AD100231A4603A92068FDF74D
:1047B000D6FC03AB93E8070000F002F806B010BD8A
:1047C0001CB5C0B2022810D111F0FF0015490DD060
:1047D00001280BD030A14620084BCDE900012C3335
:1047E0001AA222A1042001F010FA1CBD08701CBD01
:1047F00041444320496E69740D0A0000DFB8000887
:104800002E2E5C2E2E5C4170706C69636174696F32
:104810006E5C6164635F7461736B2E630000000003
:1048200041444300F4000020FA00002066660A407C
:10483000000026406261747465727920766F6C7432
:10484000616765203D202566560000002E2E5C2EF7
:104850002E5C4170706C69636174696F6E5C616439
:10486000635F7461736B2E6300000000414443007A
:10487000A0000020B1BEB4CEBDD3CAD5B5BDB5C46D
:10488000CAFDBEDDC0E0D0CDCAC7207479706520F6
:104890003D2025640A0A0000416363657074656405
:1048A000206461746120646F6573206E6F7420638F
:1048B0006F6E666F726D20746F20666F726D6174BB
:1048C00021000000244825490068B0FBF1F224498A
:1048D0000A704FF47A72B0FBF2F04880704770B5FE
:1048E0004FF0E02500216C691D4AAB6912785043F6
:1048F000AA699A42FCD002D2A3EB020302E0A4EB25
:1049000002063344194413468142F1D370BD70B599
:104910004FF0E02500216C69114AAB695288504381
:10492000AA699A42FCD002D2A3EB020302E0A4EBF4
:1049300002063344194413468142F1D370BD70B569
:10494000054600244FF47A7603E03046FFF7C7FFB0
:10495000641CAC42F9D370BD0000002040420F003F
:10496000F6000020C160498801817047C1680029B4
:104970001AD0028912B1521E028111E08A88A2F572
:104980007F43FE3B0CD0091DC1600A88A2F57F431E
:10499000FF3B03D14A88A1EB8201C16049880181B4
:1049A000C168097800F011B870471FB50446CDE919
:1049B000001200210391ADF80810684600F00DF8D0
:1049C0009DE80F0084E80F001FBD05C8002991B2C3
:1049D00001D0FCF758B8FCF754B838B50446006865
:1049E0001C49884203D101210420FCF7C8F91A4967
:1049F0002068884203D101210820FCF7C0F917493B
:104A00002068884203D101211020FCF7B8F914492D
:104A10002068884203D101212020FCF7B0F9114918
:104A20002068884203D101214020FCF7A8F9A08822
:104A3000ADF8000003208DF8020010208DF803006F
:104A400069462068FBF7B3FF00212046FFF7BDFF52
:104A500038BD000000080140000C0140001001407A
:104A60000014014000180140F8B504460168BD4833
:104A7000814202D06168814203D101210420FCF708
:104A80007EF9B9482168814202D06168814203D130
:104A900001210820FCF773F9B4482168814202D053
:104AA0006168814203D101211020FCF768F9B04808
:104AB0002168814202D06168814203D10121202016
:104AC000FCF75DF9AB482168814202D06168814200
:104AD00003D101214020FCF752F92089ADF80000F4
:104AE00003258DF8025014268DF80360694620686E
:104AF000FBF75DFFA089ADF800008DF802508DF83E
:104B0000036069466068FBF752FF208981B2206824
:104B1000FBF7B7FFA08981B26068FBF7B2FFF8BD71
:104B200010B5044600F0F5F80121204600F007F921
:104B30000121204600F0FAF8216B0120884700216E
:104B4000204600F0FCF8216B012088470021204618
:104B500000F0ECF8216BBDE810400120084710B5CB
:104B6000044600F0D6F80021204600F0E8F80121C4
:104B7000204600F0DBF8216B022088472046BDE884
:104B80001040012100F0DBB870B5044600F0B4F825
:104B90000121204600F0D3F8216B01208847012134
:104BA000204600F0C3F8216B01208847204600F022
:104BB000CFF808B1012500E000250021204600F0D3
:104BC000B5F8216B01208847284670BD10B5044612
:104BD00000F09FF80021204600F0B1F8216B022080
:104BE00088470121204600F0A1F8216B0220884768
:104BF0000021204600F09AF8216B022088472046C9
:104C0000BDE81040012100F09AB810B5044601211A
:104C100000F095F8216B012088470121204600F023
:104C200085F8216B012088470021204600F07EF89E
:104C3000216BBDE810400120084770B50D460646BF
:104C400000F067F80024280601D5012100E00021CA
:104C5000304600F074F8316B02208847012130465D
:104C600000F064F8316B022088470021304600F0E4
:104C70005DF8072C03D10121304600F060F868068A
:104C8000050E316B02208847641CE4B2082CDAD38D
:104C900070BD70B5064600F02FF80024254660066A
:104CA000040E0121304600F041F8316B01208847A5
:104CB000304600F04DF808B1641CE4B200213046E3
:104CC00000F034F8316B012088476D1CEDB2082DDF
:104CD000E5D3204670BD2849016128494161284932
:104CE00081612849C16128490162284941622849F6
:104CF00081622849C162B7E6C068802808D1194896
:104D0000016821F070410160016841F000410160DB
:104D10007047C068802808D11248016821F07041AE
:104D20000160016841F0405101607047826800688D
:104D3000012991B201D0FBF7A6BEFBF7A2BEC26863
:104D40004068012991B201D0FBF79DBEFBF799BEE7
:104D500041688968C068014201D001207047002085
:104D60007047000000080140000C014000100140A5
:104D70000014014000180140694A0008214B000856
:104D80005F4B0008894B0008CD4B00080B4C000816
:104D90003B4C0008934C000838B50D46DD490093A4
:104DA00013464C6E01462A46DA48A04738BD38B54E
:104DB0000D46D849009313460C6E01462A46D54845
:104DC000A04738BD70B50D46416904468847A26AC0
:104DD000D02120469047E16920468847A26A2946AB
:104DE00020469047E1692046884761692046884708
:104DF000A26AD12120469047E16920468847E26AAD
:104E00000021204690470546616A20468847A169EF
:104E100020468847284670BD70B50E464169154644
:104E200004468847A26AD02120469047E16920467F
:104E3000884798B9A36A314620469847E1692046D9
:104E40008847A26A294620469047E169204688475C
:104E500020B1A16920468847002070BDA169204685
:104E60008847012070BD2DE9F0410F4641691D467C
:104E700090460446069E8847A26AD0212046904765
:104E8000E1692046884728B1A1692046884701206A
:104E9000BDE8F081A26A414620469047E16920467C
:104EA0008847616920468847012000EB4700C1B26E
:104EB000A26A20469047E169204688470CE0E26AF2
:104EC000012D10D00121204690473070216A2046E4
:104ED00088476D1EEDB2761C002DF0D1A1692046E9
:104EE00088470020D4E70021204690473070616A4F
:104EF000EDE72DE9F04141691E4615460446069F3F
:104F00008847A26AD02120469047E1692046884719
:104F100080B9A26A294620469047E1692046884721
:104F200000250EE0A26A795D20469047E16920469F
:104F3000884720B1A169204688470120A8E76D1C59
:104F4000EDB2B542EED3A1692046884700209FE725
:104F5000C9060A0EC36D1B211847C9060A0EC36D88
:104F60001C211847BC2901D3012210E0622901D37A
:104F700002220CE02A2901D3032208E0142901D3DC
:104F8000042204E00A2901D3052200E00622C36DB1
:104F90001A21184770B505464FF47A700C468142C5
:104FA00001D9044602E0042C00D20424B0FBF4F042
:104FB000401EC2B2EB6D1921284698476108284669
:104FC0002A6FBDE87040104770B5016904468847F4
:104FD0008022E36D6B2120469847216B4E4888471D
:104FE0000022E36D6B2120469847A26E03212046E4
:104FF0009047E26E022120469047626FC82120460A
:1050000090470022E36D3821204698470022E36D47
:105010006A21204698470022E36D232120469847C5
:105020008022E36D372120469847A26D75212046E6
:105030009047054668280DD10122E36D6B2120467B
:1050400098470022E36D6C2120469847626F6421E7
:1050500020469047284670BDFEB50E4601A91C4665
:105060001546009106234322076E6821B8470028A1
:105070000BD1BDF8041049BA3180BDF8061049BA09
:105080002980BDF8081049BA2180FEBDFEB50E4644
:1050900001A91C461546009106233B22076E682194
:1050A000B84700280BD1BDF8041049BA3180BDF8CB
:1050B000061049BA2980BDF8081049BA2180FEBD02
:1050C00010B50446FFF707FEAFF20730A065AFF258
:1050D000B720E065AFF271202066AFF2E91060669C
:1050E000AFF29310A066AFF28D10E066AFF28B10B6
:1050F0002067AFF25F106067AFF23310A067AFF2C6
:10510000A700E067AFF27B00C4F880002046BDE84E
:10511000104059E748950020A086010010B58CB0DA
:1051200000F026F801210846FBF720FE364C204609
:10513000FBF702FB3548009035480021CDE901011D
:105140000120CDE9030180200590400006908000F9
:105150000790202008900002CDE909016946204609
:10516000FBF757FB01212046FBF77DFB0CB010BD80
:1051700070B5012186B04802FBF701FE4FF40040F4
:10518000FBF791FD0125ADF8145000248DF8174070
:1051900005A92048FBF70BFC1C4E4C3E3046FBF7A4
:1051A00033F94FF46020CDE902048DF804400094F7
:1051B0008DF805508DF8105069463046FBF740F9E0
:1051C0000523012208213046FBF7BAF901213046B8
:1051D000FBF768F901213046FBF75AF93046FBF737
:1051E00074F93046FBF776F90028FAD13046FBF720
:1051F00078F93046FBF77AF90028FAD101213046D8
:10520000FBF77BF906B070BD080002404C2401405A
:10521000FA000020000C014010B504467148844299
:1052200003D101210420FBF7AAFD6F48844203D17A
:1052300001210820FBF7A3FD6C48844203D1012122
:105240001020FBF79CFD6A48844203D101212020F5
:10525000FBF795FD6748844205D10121BDE8104068
:105260004020FBF78CBD10BD70B50D4604461AB149
:10527000012A1ED0012070BD2069A84203D181B24D
:105280002068FBF700FC6069A84203D181B2606826
:10529000FBF7F9FBA069A84203D181B2A068FBF734
:1052A000F2FBE069A84220D181B2E068FBF7EBFB9A
:1052B0001BE02069A84203D181B22068FBF7E1FB23
:1052C0006069A84203D181B26068FBF7DAFBA0698C
:1052D000A84203D181B2A068FBF7D3FBE069A842E2
:1052E00003D181B2E068FBF7CCFB002070BD00F079
:1052F00033B810B5044669B101292CD12AB3012A6B
:1053000020D0022A27D10022A169FFF7ADFFE16971
:10531000012213E062B1012A07D0022A1BD1002228
:105320002169FFF7A1FF6169F2E70122216901E02C
:1053300000222169FFF798FF616900222046BDE83D
:10534000104091E70122A16901E00022A169FFF765
:105350008BFFE169F1E710BD38B504460068FFF73F
:105360005BFF6068FFF758FFA068FFF755FFE06834
:10537000FFF752FF208AADF8000003208DF80200ED
:1053800010208DF8030069462068FBF710FBA08A07
:10539000ADF8000069466068FBF709FB208BADF8AB
:1053A00000006946A068FBF702FBA08BADF8000087
:1053B0006946E068FBF7FBFA012220462169FFF706
:1053C00053FF012220466169FFF74EFF012220466C
:1053D000A169FFF749FF01222046E169FFF744FF79
:1053E00038BD000000080140000C014000100140E1
:1053F00000140140001801402DE9F0410D4604461B
:10540000012188B04803FBF7BAFC01211020FBF70B
:10541000B6FC4FF47072ADF81C2018228DF81F20D6
:1054200003208DF81E0007A9A148FBF7C0FAADF8CC
:1054300014400024DFF87C82ADF81050ADF816401F
:10544000ADF8124004A94046FBF780FD7025ADF889
:10545000005001260227ADF80260ADF80C40ADF80F
:10546000087069464046FBF7AAFD08214046FCF754
:10547000F3F800214046FCF712FAADF80050ADF801
:105480000260ADF80C40ADF8087069464046FBF785
:10549000CBFD08214046FCF7EFF800214046FCF721
:1054A00000FAADF80050ADF80260ADF80C40ADF870
:1054B000087069464046FBF7F3FD08214046FCF7BB
:1054C000E5F800214046FCF7EEF9ADF80050ADF8E4
:1054D0000260ADF80C40ADF8087069464046FBF735
:1054E00019FE08214046FCF7D7F800214046FCF79A
:1054F000DCF901214046FBF7D1FF01214046FBF7D3
:10550000D7FF08B0BDE8F0812DE9F04780460D4691
:10551000104604F0BDFB0146674804F085FA0646D4
:1055200004F0CCFB044604F0AAFB314604F047FA31
:105530004FF07C57B84207DB4FF07E51304604F005
:10554000E9F904F0BBFB0446304604F0E4FB06F046
:105550003BF904F0F3FB064604F0B0FB814604F08F
:105560008EFB314604F02BFAB84202DB09F1010050
:1055700007E0484605E094FBF0F100FB114121B142
:10558000401E0128F7DABDE8F08794FBF0F12860AF
:10559000C8F80010F7E770B5044616460D46406897
:1055A00004F076FB314604F00DFA04F0A0FB81B262
:1055B00055B1012D0DD0022D10D0032D13D120682F
:1055C000BDE87040FCF771B92068BDE87040FCF799
:1055D00066B92068BDE87040FCF763B92068BDE893
:1055E0007040FCF760B970BD10B5044600F10801C9
:1055F000C268001DFFF788FF2E492068884207D146
:105600002089401E81B2A088401E80B2FFF7F4FEC0
:105610002A48206110BD70B586B00C460646154676
:1056200001A802A9FFF770FF2248844207D102981F
:10563000401E81B20198401E80B2FFF7DDFE1F4878
:105640000094CDE9035014226946304603F081FEF0
:1056500006B070BD2DE9F0414668044617460D4678
:10566000304604F015FB394604F0ACF904F03FFB7A
:1056700081B28E4200D2B1B255B1012D0DD0022DB2
:1056800010D0032D13D12068BDE8F041FCF70DB90F
:105690002068BDE8F041FCF702B92068BDE8F041A0
:1056A000FCF7FFB82068BDE8F041FCF7FCB829E73B
:1056B00000100140003401404054894C97550008C7
:1056C000704740490A885206FCD53E4AC1B2121DB5
:1056D000118070473B4A904204D13B480268002A3F
:1056E00000D10160704738490A68002A00D108607B
:1056F000704730B5044687B001210420FBF73FFB1B
:1057000001218803FBF73BFB4FF40071ADF810104B
:1057100018218DF8131003202C4D8DF8120004A9C8
:105720002846FBF744F92815ADF8100004218DF840
:10573000131004A92846FBF73AF90020ADF804003D
:105740000094ADF80600ADF80800ADF80C000C2090
:105750001C4CADF80A0069462046FCF707F94FF4E7
:105760004070FAF7F9FD25208DF8140001218DF81D
:1057700015108DF816108DF8171005A8FAF7F1FD21
:10578000012240F225512046FCF76DF90121204607
:10579000FCF75FF907B030BD10B50A4C40F2255157
:1057A0002046FCF717FA00280AD02046FCF7ABF990
:1057B0000549C0B20968002902D0BDE81040084779
:1057C00010BD000000380140000100200008014029
:1057D00010B500F042F800F09EF800F0EBF8BDE8DC
:1057E000104000F031B90021022807D003280BD067
:1057F00004280BD005280BD0002070474FF08042C2
:10580000B2F9240091847047B34A02E0B34A00E041
:10581000B34AB2F90000118070474FF08040018A0E
:10582000018A21F0010101827047AB4814380188D8
:10583000018821F0010101807047A84814380188CF
:10584000018821F0010101807047A54814380188C2
:10585000018821F001010180704710B5012188B055
:105860000846FBF795FA01210D20FBF788FA012184
:105870009C48FBF727F901219B48FBF723F90121FD
:105880009A48FBF71FF94FF40040ADF80C0048248C
:105890008DF80F4003A99648FBF789F80820ADF86A
:1058A0000C008DF80F4003A99248FBF780F8E4063E
:1058B0002046FBF7B3FA6846FBF7CCFD4FF6FF70C6
:1058C0000021ADF80400ADF80010ADF80610ADF8F9
:1058D000021069462046FBF739FB02231A460321D2
:1058E0002046FBF758FE04A8FBF7C7FD0520ADF8DE
:1058F000180004A92046FBF7E1FC01212046FBF734
:10590000F3FF01212046FBF7C9FD00212046FBF7EC
:10591000C2FF08B010BD10B588B001210220FBF70E
:1059200037FA01210920FBF72AFA01217248FBF717
:10593000C9F806A8FBF789F83020ADF81800482010
:105940008DF81B0006A96B48FBF731F8624C243C2C
:105950002046FBF763FA6846FBF77CFD4FF6FF70C5
:105960000021ADF80400ADF80010ADF80610ADF858
:10597000021069462046FBF7E9FA00231A46032184
:105980002046FBF708FE03A8FBF777FD0520ADF8DE
:10599000140003A92046FBF791FC01212046FBF7E8
:1059A000A3FF01212046FBF779FD00212046FBF7EC
:1059B00072FFAEE710B588B001210820FBF7DFF9D0
:1059C00001210420FBF7E4F904208DF81B00C0201E
:1059D000ADF8180006A94748FAF7E9FF6846FBF753
:1059E00039FD0020ADF806003C4CADF802004FF642
:1059F000FF71ADF80410ADF80000243C6946204664
:105A0000FBF7A4FA00231A4603212046FBF7C3FD47
:105A100003A8FBF732FD0A21ADF8141003A92046B4
:105A2000FBF74CFC01212046FBF75EFF01221146EB
:105A30002046FBF748FD00212046FBF72CFF012103
:105A40002046FBF72BFD64E710B588B00121082044
:105A5000FBF79EF901210520FBF791F90320ADF832
:105A6000180048208DF81B0006A92148FAF79FFF6F
:105A70001B4C243C2046FBF7D1F96846FBF7EAFCB7
:105A80004FF6FF700021ADF80400ADF80010ADF83E
:105A90000610ADF8021069462046FBF757FA0023BE
:105AA0001A4603212046FBF776FD03A8FBF7E5FC29
:105AB0000520ADF8140003A92046FBF7FFFB0121E8
:105AC0002046FBF711FF01212046FBF7E7FC0021F0
:105AD0002046FBF7E0FE1CE72404004024080040B9
